{
  "contractName": "MedicalRecord",
  "abi": [
    {
      "inputs": [
        {
          "internalType": "address",
          "name": "",
          "type": "address"
        },
        {
          "internalType": "uint256",
          "name": "",
          "type": "uint256"
        }
      ],
      "name": "recordCollection",
      "outputs": [
        {
          "internalType": "address",
          "name": "ownerAddress",
          "type": "address"
        },
        {
          "internalType": "bytes32",
          "name": "hash",
          "type": "bytes32"
        },
        {
          "internalType": "string",
          "name": "info",
          "type": "string"
        },
        {
          "internalType": "uint256",
          "name": "id",
          "type": "uint256"
        }
      ],
      "stateMutability": "view",
      "type": "function",
      "constant": true
    },
    {
      "inputs": [
        {
          "internalType": "string",
          "name": "_ipfsHash",
          "type": "string"
        },
        {
          "internalType": "address",
          "name": "_patientAddress",
          "type": "address"
        },
        {
          "internalType": "string",
          "name": "_identifier",
          "type": "string"
        }
      ],
      "name": "addRecordAuthority",
      "outputs": [
        {
          "internalType": "uint256",
          "name": "",
          "type": "uint256"
        }
      ],
      "stateMutability": "payable",
      "type": "function",
      "payable": true
    },
    {
      "inputs": [
        {
          "internalType": "uint256",
          "name": "_id",
          "type": "uint256"
        }
      ],
      "name": "viewColletionOwner",
      "outputs": [
        {
          "internalType": "string",
          "name": "",
          "type": "string"
        }
      ],
      "stateMutability": "view",
      "type": "function",
      "constant": true
    },
    {
      "inputs": [
        {
          "internalType": "uint256",
          "name": "_id",
          "type": "uint256"
        }
      ],
      "name": "viewRecordOwner",
      "outputs": [
        {
          "components": [
            {
              "internalType": "address",
              "name": "ownerAddress",
              "type": "address"
            },
            {
              "internalType": "bytes32",
              "name": "hash",
              "type": "bytes32"
            },
            {
              "internalType": "string",
              "name": "info",
              "type": "string"
            },
            {
              "internalType": "uint256",
              "name": "id",
              "type": "uint256"
            }
          ],
          "internalType": "struct MedicalRecord.medicalRecord",
          "name": "",
          "type": "tuple"
        }
      ],
      "stateMutability": "view",
      "type": "function",
      "constant": true
    },
    {
      "inputs": [
        {
          "internalType": "address",
          "name": "_patientAddress",
          "type": "address"
        }
      ],
      "name": "findRecordCount",
      "outputs": [
        {
          "internalType": "uint256",
          "name": "",
          "type": "uint256"
        }
      ],
      "stateMutability": "view",
      "type": "function",
      "constant": true
    },
    {
      "inputs": [
        {
          "internalType": "bytes32",
          "name": "_hash",
          "type": "bytes32"
        },
        {
          "internalType": "address",
          "name": "_patientAddress",
          "type": "address"
        },
        {
          "internalType": "uint256",
          "name": "_id",
          "type": "uint256"
        }
      ],
      "name": "verifyHash",
      "outputs": [
        {
          "internalType": "bool",
          "name": "",
          "type": "bool"
        }
      ],
      "stateMutability": "view",
      "type": "function",
      "constant": true
    },
    {
      "inputs": [
        {
          "internalType": "address",
          "name": "_address",
          "type": "address"
        },
        {
          "internalType": "string",
          "name": "_ipfsHash",
          "type": "string"
        },
        {
          "internalType": "string",
          "name": "_info",
          "type": "string"
        }
      ],
      "name": "provideAccess",
      "outputs": [
        {
          "components": [
            {
              "internalType": "address",
              "name": "ownerAddress",
              "type": "address"
            },
            {
              "internalType": "string",
              "name": "hash",
              "type": "string"
            },
            {
              "internalType": "uint256",
              "name": "validity",
              "type": "uint256"
            },
            {
              "internalType": "string",
              "name": "info",
              "type": "string"
            }
          ],
          "internalType": "struct MedicalRecord.accessRecord",
          "name": "",
          "type": "tuple"
        }
      ],
      "stateMutability": "payable",
      "type": "function",
      "payable": true
    },
    {
      "inputs": [
        {
          "internalType": "uint256",
          "name": "_id",
          "type": "uint256"
        }
      ],
      "name": "verifyValidity",
      "outputs": [
        {
          "internalType": "bool",
          "name": "",
          "type": "bool"
        }
      ],
      "stateMutability": "view",
      "type": "function",
      "constant": true
    },
    {
      "inputs": [],
      "name": "fetchAccessRecordCount",
      "outputs": [
        {
          "internalType": "uint256",
          "name": "",
          "type": "uint256"
        }
      ],
      "stateMutability": "view",
      "type": "function",
      "constant": true
    },
    {
      "inputs": [
        {
          "internalType": "uint256",
          "name": "_id",
          "type": "uint256"
        }
      ],
      "name": "fetchAccessCollection",
      "outputs": [
        {
          "components": [
            {
              "internalType": "address",
              "name": "ownerAddress",
              "type": "address"
            },
            {
              "internalType": "string",
              "name": "hash",
              "type": "string"
            },
            {
              "internalType": "uint256",
              "name": "validity",
              "type": "uint256"
            },
            {
              "internalType": "string",
              "name": "info",
              "type": "string"
            }
          ],
          "internalType": "struct MedicalRecord.accessRecord",
          "name": "",
          "type": "tuple"
        }
      ],
      "stateMutability": "view",
      "type": "function",
      "constant": true
    },
    {
      "inputs": [
        {
          "internalType": "string",
          "name": "_ipfsHash",
          "type": "string"
        },
        {
          "internalType": "uint256",
          "name": "_id",
          "type": "uint256"
        }
      ],
      "name": "fetchAccessRecord",
      "outputs": [
        {
          "internalType": "string",
          "name": "",
          "type": "string"
        }
      ],
      "stateMutability": "view",
      "type": "function",
      "constant": true
    }
  ],
  "bytecode": "0x608060405234801561001057600080fd5b50611b78806100206000396000f3fe60806040526004361061009c5760003560e01c806378bf83c91161006457806378bf83c9146101c55780638c5e75f3146102025780639115afa01461023f578063cfc25d2d1461027c578063f13adbeb146102a7578063ff0baacb146102e75761009c565b80630261d462146100a15780630db707e6146100de578063183a85bb1461011b5780633452d55614610158578063754ea88d14610188575b600080fd5b3480156100ad57600080fd5b506100c860048036038101906100c39190610f46565b610317565b6040516100d59190610f8e565b60405180910390f35b3480156100ea57600080fd5b5061010560048036038101906101009190610f46565b610396565b60405161011291906110f3565b60405180910390f35b34801561012757600080fd5b50610142600480360381019061013d9190610f46565b610593565b60405161014f919061115f565b60405180910390f35b610172600480360381019061016d91906112e2565b61067f565b60405161017f91906110f3565b60405180910390f35b34801561019457600080fd5b506101af60048036038101906101aa919061136d565b6107c9565b6040516101bc91906113a9565b60405180910390f35b3480156101d157600080fd5b506101ec60048036038101906101e791906113fa565b610815565b6040516101f99190610f8e565b60405180910390f35b34801561020e57600080fd5b5061022960048036038101906102249190610f46565b6108b8565b60405161023691906114bf565b60405180910390f35b34801561024b57600080fd5b50610266600480360381019061026191906114e1565b610a2d565b604051610273919061115f565b60405180910390f35b34801561028857600080fd5b50610291610afa565b60405161029e91906113a9565b60405180910390f35b3480156102b357600080fd5b506102ce60048036038101906102c9919061153d565b610b44565b6040516102de949392919061159b565b60405180910390f35b61030160048036038101906102fc91906115e7565b610c39565b60405161030e91906113a9565b60405180910390f35b600042600260003373ffffffffffffffffffffffffffffffffffffffff1673ffffffffffffffffffffffffffffffffffffffff168152602001908152602001600020838154811061036b5761036a611672565b5b906000526020600020906004020160020154101561038c5760019050610391565b600090505b919050565b61039e610e7d565b600260003373ffffffffffffffffffffffffffffffffffffffff1673ffffffffffffffffffffffffffffffffffffffff16815260200190815260200160002082815481106103ef576103ee611672565b5b90600052602060002090600402016040518060800160405290816000820160009054906101000a900473ffffffffffffffffffffffffffffffffffffffff1673ffffffffffffffffffffffffffffffffffffffff1673ffffffffffffffffffffffffffffffffffffffff16815260200160018201805461046e906116d0565b80601f016020809104026020016040519081016040528092919081815260200182805461049a906116d0565b80156104e75780601f106104bc576101008083540402835291602001916104e7565b820191906000526020600020905b8154815290600101906020018083116104ca57829003601f168201915b505050505081526020016002820154815260200160038201805461050a906116d0565b80601f0160208091040260200160405190810160405280929190818152602001828054610536906116d0565b80156105835780601f1061055857610100808354040283529160200191610583565b820191906000526020600020905b81548152906001019060200180831161056657829003601f168201915b5050505050815250509050919050565b60606000803373ffffffffffffffffffffffffffffffffffffffff1673ffffffffffffffffffffffffffffffffffffffff16815260200190815260200160002082815481106105e5576105e4611672565b5b9060005260206000200180546105fa906116d0565b80601f0160208091040260200160405190810160405280929190818152602001828054610626906116d0565b80156106735780601f1061064857610100808354040283529160200191610673565b820191906000526020600020905b81548152906001019060200180831161065657829003601f168201915b50505050509050919050565b610687610e7d565b600062069780426106989190611730565b9050600060405180608001604052803373ffffffffffffffffffffffffffffffffffffffff168152602001868152602001838152602001858152509050600260008773ffffffffffffffffffffffffffffffffffffffff1673ffffffffffffffffffffffffffffffffffffffff16815260200190815260200160002081908060018154018082558091505060019003906000526020600020906004020160009091909190915060008201518160000160006101000a81548173ffffffffffffffffffffffffffffffffffffffff021916908373ffffffffffffffffffffffffffffffffffffffff160217905550602082015181600101908161079a9190611910565b506040820151816002015560608201518160030190816107ba9190611910565b50505080925050509392505050565b6000600160008373ffffffffffffffffffffffffffffffffffffffff1673ffffffffffffffffffffffffffffffffffffffff168152602001908152602001600020805490509050919050565b6000806000808573ffffffffffffffffffffffffffffffffffffffff1673ffffffffffffffffffffffffffffffffffffffff168152602001908152602001600020838154811061086857610867611672565b5b906000526020600020016040516020016108829190611a66565b6040516020818303038152906040528051906020012090508085036108ab5760019150506108b1565b60009150505b9392505050565b6108c0610ebb565b600160003373ffffffffffffffffffffffffffffffffffffffff1673ffffffffffffffffffffffffffffffffffffffff168152602001908152602001600020828154811061091157610910611672565b5b90600052602060002090600402016040518060800160405290816000820160009054906101000a900473ffffffffffffffffffffffffffffffffffffffff1673ffffffffffffffffffffffffffffffffffffffff1673ffffffffffffffffffffffffffffffffffffffff1681526020016001820154815260200160028201805461099a906116d0565b80601f01602080910402602001604051908101604052809291908181526020018280546109c6906116d0565b8015610a135780601f106109e857610100808354040283529160200191610a13565b820191906000526020600020905b8154815290600101906020018083116109f657829003601f168201915b505050505081526020016003820154815250509050919050565b60608280519060200120600260003373ffffffffffffffffffffffffffffffffffffffff1673ffffffffffffffffffffffffffffffffffffffff1681526020019081526020016000208381548110610a8857610a87611672565b5b9060005260206000209060040201600101604051610aa69190611b2b565b604051809103902003610abb57829050610af4565b6040518060400160405280600981526020017f4e6f7420466f756e64000000000000000000000000000000000000000000000081525090505b92915050565b6000600260003373ffffffffffffffffffffffffffffffffffffffff1673ffffffffffffffffffffffffffffffffffffffff16815260200190815260200160002080549050905090565b60016020528160005260406000208181548110610b6057600080fd5b9060005260206000209060040201600091509150508060000160009054906101000a900473ffffffffffffffffffffffffffffffffffffffff1690806001015490806002018054610bb0906116d0565b80601f0160208091040260200160405190810160405280929190818152602001828054610bdc906116d0565b8015610c295780601f10610bfe57610100808354040283529160200191610c29565b820191906000526020600020905b815481529060010190602001808311610c0c57829003601f168201915b5050505050908060030154905084565b60008060008473ffffffffffffffffffffffffffffffffffffffff1673ffffffffffffffffffffffffffffffffffffffff16815260200190815260200160002084908060018154018082558091505060019003906000526020600020016000909190919091509081610cab9190611910565b50600084604051602001610cbf919061115f565b604051602081830303815290604052805190602001209050600060405180608001604052808673ffffffffffffffffffffffffffffffffffffffff1681526020018381526020018581526020016000808873ffffffffffffffffffffffffffffffffffffffff1673ffffffffffffffffffffffffffffffffffffffff168152602001908152602001600020805490508152509050600160008673ffffffffffffffffffffffffffffffffffffffff1673ffffffffffffffffffffffffffffffffffffffff16815260200190815260200160002081908060018154018082558091505060019003906000526020600020906004020160009091909190915060008201518160000160006101000a81548173ffffffffffffffffffffffffffffffffffffffff021916908373ffffffffffffffffffffffffffffffffffffffff160217905550602082015181600101556040820151816002019081610e229190611910565b50606082015181600301555050600160008673ffffffffffffffffffffffffffffffffffffffff1673ffffffffffffffffffffffffffffffffffffffff16815260200190815260200160002080549050925050509392505050565b6040518060800160405280600073ffffffffffffffffffffffffffffffffffffffff1681526020016060815260200160008152602001606081525090565b6040518060800160405280600073ffffffffffffffffffffffffffffffffffffffff1681526020016000801916815260200160608152602001600081525090565b6000604051905090565b600080fd5b600080fd5b6000819050919050565b610f2381610f10565b8114610f2e57600080fd5b50565b600081359050610f4081610f1a565b92915050565b600060208284031215610f5c57610f5b610f06565b5b6000610f6a84828501610f31565b91505092915050565b60008115159050919050565b610f8881610f73565b82525050565b6000602082019050610fa36000830184610f7f565b92915050565b600073ffffffffffffffffffffffffffffffffffffffff82169050919050565b6000610fd482610fa9565b9050919050565b610fe481610fc9565b82525050565b600081519050919050565b600082825260208201905092915050565b60005b83811015611024578082015181840152602081019050611009565b60008484015250505050565b6000601f19601f8301169050919050565b600061104c82610fea565b6110568185610ff5565b9350611066818560208601611006565b61106f81611030565b840191505092915050565b61108381610f10565b82525050565b60006080830160008301516110a16000860182610fdb565b50602083015184820360208601526110b98282611041565b91505060408301516110ce604086018261107a565b50606083015184820360608601526110e68282611041565b9150508091505092915050565b6000602082019050818103600083015261110d8184611089565b905092915050565b600082825260208201905092915050565b600061113182610fea565b61113b8185611115565b935061114b818560208601611006565b61115481611030565b840191505092915050565b600060208201905081810360008301526111798184611126565b905092915050565b61118a81610fc9565b811461119557600080fd5b50565b6000813590506111a781611181565b92915050565b600080fd5b600080fd5b7f4e487b7100000000000000000000000000000000000000000000000000000000600052604160045260246000fd5b6111ef82611030565b810181811067ffffffffffffffff8211171561120e5761120d6111b7565b5b80604052505050565b6000611221610efc565b905061122d82826111e6565b919050565b600067ffffffffffffffff82111561124d5761124c6111b7565b5b61125682611030565b9050602081019050919050565b82818337600083830152505050565b600061128561128084611232565b611217565b9050828152602081018484840111156112a1576112a06111b2565b5b6112ac848285611263565b509392505050565b600082601f8301126112c9576112c86111ad565b5b81356112d9848260208601611272565b91505092915050565b6000806000606084860312156112fb576112fa610f06565b5b600061130986828701611198565b935050602084013567ffffffffffffffff81111561132a57611329610f0b565b5b611336868287016112b4565b925050604084013567ffffffffffffffff81111561135757611356610f0b565b5b611363868287016112b4565b9150509250925092565b60006020828403121561138357611382610f06565b5b600061139184828501611198565b91505092915050565b6113a381610f10565b82525050565b60006020820190506113be600083018461139a565b92915050565b6000819050919050565b6113d7816113c4565b81146113e257600080fd5b50565b6000813590506113f4816113ce565b92915050565b60008060006060848603121561141357611412610f06565b5b6000611421868287016113e5565b935050602061143286828701611198565b925050604061144386828701610f31565b9150509250925092565b611456816113c4565b82525050565b60006080830160008301516114746000860182610fdb565b506020830151611487602086018261144d565b506040830151848203604086015261149f8282611041565b91505060608301516114b4606086018261107a565b508091505092915050565b600060208201905081810360008301526114d9818461145c565b905092915050565b600080604083850312156114f8576114f7610f06565b5b600083013567ffffffffffffffff81111561151657611515610f0b565b5b611522858286016112b4565b925050602061153385828601610f31565b9150509250929050565b6000806040838503121561155457611553610f06565b5b600061156285828601611198565b925050602061157385828601610f31565b9150509250929050565b61158681610fc9565b82525050565b611595816113c4565b82525050565b60006080820190506115b0600083018761157d565b6115bd602083018661158c565b81810360408301526115cf8185611126565b90506115de606083018461139a565b95945050505050565b600080600060608486031215611600576115ff610f06565b5b600084013567ffffffffffffffff81111561161e5761161d610f0b565b5b61162a868287016112b4565b935050602061163b86828701611198565b925050604084013567ffffffffffffffff81111561165c5761165b610f0b565b5b611668868287016112b4565b9150509250925092565b7f4e487b7100000000000000000000000000000000000000000000000000000000600052603260045260246000fd5b7f4e487b7100000000000000000000000000000000000000000000000000000000600052602260045260246000fd5b600060028204905060018216806116e857607f821691505b6020821081036116fb576116fa6116a1565b5b50919050565b7f4e487b7100000000000000000000000000000000000000000000000000000000600052601160045260246000fd5b600061173b82610f10565b915061174683610f10565b925082820190508082111561175e5761175d611701565b5b92915050565b60008190508160005260206000209050919050565b60006020601f8301049050919050565b600082821b905092915050565b6000600883026117c67fffffffffffffffffffffffffffffffffffffffffffffffffffffffffffffffff82611789565b6117d08683611789565b95508019841693508086168417925050509392505050565b6000819050919050565b600061180d61180861180384610f10565b6117e8565b610f10565b9050919050565b6000819050919050565b611827836117f2565b61183b61183382611814565b848454611796565b825550505050565b600090565b611850611843565b61185b81848461181e565b505050565b5b8181101561187f57611874600082611848565b600181019050611861565b5050565b601f8211156118c45761189581611764565b61189e84611779565b810160208510156118ad578190505b6118c16118b985611779565b830182611860565b50505b505050565b600082821c905092915050565b60006118e7600019846008026118c9565b1980831691505092915050565b600061190083836118d6565b9150826002028217905092915050565b61191982610fea565b67ffffffffffffffff811115611932576119316111b7565b5b61193c82546116d0565b611947828285611883565b600060209050601f83116001811461197a5760008415611968578287015190505b61197285826118f4565b8655506119da565b601f19841661198886611764565b60005b828110156119b05784890151825560018201915060208501945060208101905061198b565b868310156119cd57848901516119c9601f8916826118d6565b8355505b6001600288020188555050505b505050505050565b600081546119ef816116d0565b6119f98186611115565b94506001821660008114611a145760018114611a2a57611a5d565b60ff198316865281151560200286019350611a5d565b611a3385611764565b60005b83811015611a5557815481890152600182019150602081019050611a36565b808801955050505b50505092915050565b60006020820190508181036000830152611a8081846119e2565b905092915050565b600081905092915050565b60008190508160005260206000209050919050565b60008154611ab5816116d0565b611abf8186611a88565b94506001821660008114611ada5760018114611aef57611b22565b60ff1983168652811515820286019350611b22565b611af885611a93565b60005b83811015611b1a57815481890152600182019150602081019050611afb565b838801955050505b50505092915050565b6000611b378284611aa8565b91508190509291505056fea2646970667358221220fdebeebb68efe49934e9630072c5f47922d0dddc61f19f9510068431b9847ac564736f6c63430008130033",
  "immutableReferences": {},
  "source": "// SPDX-License-Identifier: GPL-3.0\r\n\r\npragma solidity >=0.7.0 <0.9.0;\r\n\r\ncontract MedicalRecord {\r\n    struct medicalRecord {\r\n        address ownerAddress;\r\n        bytes32 hash;\r\n        string info;\r\n        uint256 id;\r\n    }\r\n\r\n    struct accessRecord {\r\n        address ownerAddress;\r\n        string hash;\r\n        uint validity;\r\n        string info;\r\n    }\r\n\r\n    mapping(address => string[]) private hashCollection;\r\n    mapping(address => medicalRecord[]) public recordCollection;\r\n    mapping(address => accessRecord[]) private accessCollection;\r\n\r\n    function addRecordAuthority(\r\n        string memory _ipfsHash,\r\n        address _patientAddress,\r\n        string memory _identifier\r\n    ) public payable returns (uint256) {\r\n        hashCollection[_patientAddress].push(_ipfsHash);\r\n        bytes32 hashValue = keccak256(abi.encode(_ipfsHash));\r\n        medicalRecord memory newRecord = medicalRecord(\r\n            _patientAddress,\r\n            hashValue,\r\n            _identifier,\r\n            hashCollection[_patientAddress].length\r\n        );\r\n        recordCollection[_patientAddress].push(newRecord);\r\n        return recordCollection[_patientAddress].length;\r\n    }\r\n\r\n    function viewColletionOwner(\r\n        uint256 _id\r\n    ) public view returns (string memory) {\r\n        return hashCollection[msg.sender][_id];\r\n    }\r\n\r\n    function viewRecordOwner(\r\n        uint256 _id\r\n    ) public view returns (medicalRecord memory) {\r\n        return recordCollection[msg.sender][_id];\r\n    }\r\n\r\n    function findRecordCount(\r\n        address _patientAddress\r\n    ) public view returns (uint256) {\r\n        return recordCollection[_patientAddress].length;\r\n    }\r\n\r\n    function verifyHash(\r\n        bytes32 _hash,\r\n        address _patientAddress,\r\n        uint256 _id\r\n    ) public view returns (bool) {\r\n        bytes32 hashValue = keccak256(\r\n            abi.encode(hashCollection[_patientAddress][_id])\r\n        );\r\n        if (_hash == hashValue) {\r\n            return true;\r\n        } else {\r\n            return false;\r\n        }\r\n    }\r\n\r\n    function provideAccess(\r\n        address _address,\r\n        string memory _ipfsHash,\r\n        string memory _info\r\n    ) public payable returns (accessRecord memory) {\r\n        uint timeNow = block.timestamp + 5 days;\r\n        accessRecord memory record = accessRecord(\r\n            msg.sender,\r\n            _ipfsHash,\r\n            timeNow,\r\n            _info\r\n        );\r\n        accessCollection[_address].push(record);\r\n        return record;\r\n    }\r\n\r\n    function verifyValidity(uint256 _id) public view returns (bool) {\r\n        if (accessCollection[msg.sender][_id].validity < block.timestamp) {\r\n            return true;\r\n        } else {\r\n            return false;\r\n        }\r\n    }\r\n\r\n    function fetchAccessRecordCount() public view returns (uint256) {\r\n        return accessCollection[msg.sender].length;\r\n    }\r\n\r\n    function fetchAccessCollection(\r\n        uint256 _id\r\n    ) public view returns (accessRecord memory) {\r\n        return accessCollection[msg.sender][_id];\r\n    }\r\n\r\n    function fetchAccessRecord(\r\n        string memory _ipfsHash,\r\n        uint256 _id\r\n    ) public view returns (string memory) {\r\n        if (\r\n            keccak256(bytes(accessCollection[msg.sender][_id].hash)) ==\r\n            keccak256(bytes(_ipfsHash))\r\n        ) {\r\n            return _ipfsHash;\r\n        }\r\n        return \"Not Found\";\r\n    }\r\n}\r\n",
  "sourcePath": "C:\\Users\\Haroon Ali\\OneDrive\\Desktop\\COde\\Node-Template\\contracts\\record.sol",
  "compiler": {
    "name": "solc",
    "version": "0.8.19+commit.7dd6d404.Emscripten.clang"
  },
  "schemaVersion": "3.4.13",
  "updatedAt": "2023-04-03T03:51:05.158Z",
  "networkType": "ethereum",
  "devdoc": {
    "kind": "dev",
    "methods": {},
    "version": 1
  },
  "userdoc": {
    "kind": "user",
    "methods": {},
    "version": 1
  }
}