{
  "contractName": "UserKey",
  "abi": [
    {
      "inputs": [
        {
          "internalType": "string",
          "name": "_path",
          "type": "string"
        }
      ],
      "name": "saveUserKey",
      "outputs": [],
      "stateMutability": "nonpayable",
      "type": "function"
    },
    {
      "inputs": [
        {
          "internalType": "address",
          "name": "_address",
          "type": "address"
        }
      ],
      "name": "viewKey",
      "outputs": [
        {
          "internalType": "string",
          "name": "",
          "type": "string"
        }
      ],
      "stateMutability": "view",
      "type": "function",
      "constant": true
    }
  ],
  "bytecode": "0x608060405234801561001057600080fd5b50610792806100206000396000f3fe608060405234801561001057600080fd5b50600436106100355760003560e01c8062fefb1c1461003a5780636284901a14610056575b600080fd5b610054600480360381019061004f91906102ff565b610086565b005b610070600480360381019061006b91906103a6565b6100d5565b60405161007d9190610452565b60405180910390f35b806000803373ffffffffffffffffffffffffffffffffffffffff1673ffffffffffffffffffffffffffffffffffffffff16815260200190815260200160002090816100d1919061068a565b5050565b60606000808373ffffffffffffffffffffffffffffffffffffffff1673ffffffffffffffffffffffffffffffffffffffff1681526020019081526020016000208054610120906104a3565b80601f016020809104026020016040519081016040528092919081815260200182805461014c906104a3565b80156101995780601f1061016e57610100808354040283529160200191610199565b820191906000526020600020905b81548152906001019060200180831161017c57829003601f168201915b50505050509050919050565b6000604051905090565b600080fd5b600080fd5b600080fd5b600080fd5b6000601f19601f8301169050919050565b7f4e487b7100000000000000000000000000000000000000000000000000000000600052604160045260246000fd5b61020c826101c3565b810181811067ffffffffffffffff8211171561022b5761022a6101d4565b5b80604052505050565b600061023e6101a5565b905061024a8282610203565b919050565b600067ffffffffffffffff82111561026a576102696101d4565b5b610273826101c3565b9050602081019050919050565b82818337600083830152505050565b60006102a261029d8461024f565b610234565b9050828152602081018484840111156102be576102bd6101be565b5b6102c9848285610280565b509392505050565b600082601f8301126102e6576102e56101b9565b5b81356102f684826020860161028f565b91505092915050565b600060208284031215610315576103146101af565b5b600082013567ffffffffffffffff811115610333576103326101b4565b5b61033f848285016102d1565b91505092915050565b600073ffffffffffffffffffffffffffffffffffffffff82169050919050565b600061037382610348565b9050919050565b61038381610368565b811461038e57600080fd5b50565b6000813590506103a08161037a565b92915050565b6000602082840312156103bc576103bb6101af565b5b60006103ca84828501610391565b91505092915050565b600081519050919050565b600082825260208201905092915050565b60005b8381101561040d5780820151818401526020810190506103f2565b60008484015250505050565b6000610424826103d3565b61042e81856103de565b935061043e8185602086016103ef565b610447816101c3565b840191505092915050565b6000602082019050818103600083015261046c8184610419565b905092915050565b7f4e487b7100000000000000000000000000000000000000000000000000000000600052602260045260246000fd5b600060028204905060018216806104bb57607f821691505b6020821081036104ce576104cd610474565b5b50919050565b60008190508160005260206000209050919050565b60006020601f8301049050919050565b600082821b905092915050565b6000600883026105367fffffffffffffffffffffffffffffffffffffffffffffffffffffffffffffffff826104f9565b61054086836104f9565b95508019841693508086168417925050509392505050565b6000819050919050565b6000819050919050565b600061058761058261057d84610558565b610562565b610558565b9050919050565b6000819050919050565b6105a18361056c565b6105b56105ad8261058e565b848454610506565b825550505050565b600090565b6105ca6105bd565b6105d5818484610598565b505050565b5b818110156105f9576105ee6000826105c2565b6001810190506105db565b5050565b601f82111561063e5761060f816104d4565b610618846104e9565b81016020851015610627578190505b61063b610633856104e9565b8301826105da565b50505b505050565b600082821c905092915050565b600061066160001984600802610643565b1980831691505092915050565b600061067a8383610650565b9150826002028217905092915050565b610693826103d3565b67ffffffffffffffff8111156106ac576106ab6101d4565b5b6106b682546104a3565b6106c18282856105fd565b600060209050601f8311600181146106f457600084156106e2578287015190505b6106ec858261066e565b865550610754565b601f198416610702866104d4565b60005b8281101561072a57848901518255600182019150602085019450602081019050610705565b868310156107475784890151610743601f891682610650565b8355505b6001600288020188555050505b50505050505056fea2646970667358221220c4970c7b3f1cb12a3803d4b044f825763b38f9ee84f7ed2f70bbfd0ec52911f564736f6c63430008130033",
  "immutableReferences": {},
  "source": "// SPDX-License-Identifier: GPL-3.0\r\npragma solidity ^0.8.0;\r\n\r\ncontract UserKey {\r\n    mapping(address => string) private Key;\r\n\r\n    function saveUserKey(string memory _path) public {\r\n        Key[msg.sender] = _path;\r\n    }\r\n\r\n    function viewKey(address _address) public view returns (string memory) {\r\n        return Key[_address];\r\n    }\r\n}\r\n",
  "sourcePath": "C:\\Users\\Haroon Ali\\OneDrive\\Desktop\\COde\\Node-Template\\contracts\\user_key.sol",
  "compiler": {
    "name": "solc",
    "version": "0.8.19+commit.7dd6d404.Emscripten.clang"
  },
  "schemaVersion": "3.4.13",
  "updatedAt": "2023-04-03T03:51:05.174Z",
  "networkType": "ethereum",
  "devdoc": {
    "kind": "dev",
    "methods": {},
    "version": 1
  },
  "userdoc": {
    "kind": "user",
    "methods": {},
    "version": 1
  }
}